:100000000C9446000C9463000C9463000C94630001
:100010000C9463000C94BA040C9411050C944305E1
:100020000C94B7050C9463000C9463000C9463006B
:100030000C9463000C9463000C947E020C94630097
:100040000C9476030C9463000C9400010C946300F0
:100050000C9463000C9449480C9463000C94630066
:100060000C9463000C9463000C9463000C94630084
:100070000C9463000C94BF030C94D4000C946300A4
:100080000C9463000C9463000C94630011241FBE55
:10009000CFEFD0E1DEBFCDBF16E0A0E0B1E0EEEEE5
:1000A000F0EA00E00BBF02C007900D92A232B10748
:1000B000D9F71CE0A2E2B6E001C01D92A231B1075F
:1000C000E1F70C9428180C940000CF93DF93CDB780
:1000D000DEB781E08093360610923906109238061A
:1000E00082E080934E0060E070E080E00E941D3B63
:1000F000DF91CF910895CF93DF93CDB7DEB72397EC
:100100000FB6F894DEBF0FBECDBF9A8389836B8391
:10011000109249001092480081E0809337061092B7
:1001200039061092380689819A812FEF8F3F920706
:1001300031F089819A81909374078093730782E0EC
:1001400080934E0010924D0010924C0010923A068F
:10015000609173077091740780E00E948B3C8091DE
:100160007307909174070196BC0181E00E948B3C5B
:100170008091730790917407019690937407809310
:10018000730760E070E080E00E94FA3A8B81882378
:1001900011F00E942A0123960FB6F894DEBF0FBE1D
:1001A000CDBFDF91CF9108951F920F920FB60F929E
:1001B00011242F933F934F935F936F937F938F936C
:1001C0009F93AF93BF93EF93FF93CF93DF93CDB7FD
:1001D000DEB780919C000E94602BDF91CF91FF9150
:1001E000EF91BF91AF919F918F917F916F915F91AF
:1001F0004F913F912F910F900FBE0F901F90189528
:100200001F920F920FB60F9211242F933F934F938B
:100210005F936F937F938F939F93AF93BF93EF936E
:10022000FF93CF93DF93CDB7DEB70E94C630DF9147
:10023000CF91FF91EF91BF91AF919F918F917F915E
:100240006F915F914F913F912F910F900FBE0F9043
:100250001F901895CF93DF93CDB7DEB78091F1064D
:10026000882329F080913200806280933200DF91F0
:10027000CF910895CF93DF93CDB7DEB780913F063E
:100280008093400681E00E942D4880933F06809134
:100290003D0690913E06019690933E0680933D0662
:1002A00080913D0690913E068430910558F19091E1
:1002B0003F0680914006981B892F8093A706809166
:1002C000A70688231CF41092A70603C081E0809340
:1002D000A7068091A706282F332727FD3095809108
:1002E000A90699272817390769F08091A7068093F6
:1002F000A9068091A906882329F48091F6068F5FCC
:100300008093F60680913D0690913E0688369105D1
:1003100008F4F1C080915B0790915C07019690937F
:100320005C0780935B078091F6068B3040F08091EC
:10033000F6068E3020F481E08093F60602C010921B
:10034000F6069091F6068091DB06981751F480919D
:10035000EE069091EF0601969093EF068093EE06DD
:1003600013C08091EE069091EF06009749F08091BE
:10037000EE069091EF0601979093EF068093EE06BC
:100380008091F6068093DB062091100430911104D1
:100390008091EE069091EF062817390708F0A5C066
:1003A00090917D068091F606981709F45CC08091C3
:1003B000F60680937D068AE00E94472980917D069B
:1003C000805D0E94E72880E20E94E7284AE050E032
:1003D00062E276E080915B0790915C070E946A4F31
:1003E0000E94242980E20E94E72880E40E94472995
:1003F00080917D06813019F481E08093C10680915F
:10040000C106882319F18091F6068823F9F48091BA
:100410005B0790915C079C01220F331F809180063F
:10042000909181062817390730F481E08093F40613
:10043000109258070BC080915807823021F482E057
:100440008093F40603C082E08093580780915B0795
:1004500090915C07909381068093800610925C07D0
:1004600010925B073AC020910E0430910F048091E6
:100470005B0790915C072817390780F48091C106CB
:10048000882361F080917D06882341F083E080938A
:10049000F40610925C0710925B071FC020911204B3
:1004A0003091130480915B0790915C0728173907FE
:1004B000A0F48091C106882381F01092580783E050
:1004C0008093F40680917D06882319F484E080935C
:1004D000F40610925C0710925B071092EF061092E0
:1004E000EE068091F6068093DB061092F6061092D7
:1004F0003E0610923D06DF91CF9108951F920F9214
:100500000FB60F9211242F933F934F935F936F93E6
:100510007F938F939F93AF93BF93EF93FF93CF936B
:10052000DF93CDB7DEB72197DEBFCDBF8091370611
:10053000882309F49BC0809118049091190490932A
:100540004D0080934C0080913A060E94DA3C8983EA
:1005500089818F3F09F43EC0898199279093490092
:1005600080934800809138069091390601969093C7
:10057000390680933806809138069091390622E03A
:100580008030920709F072C08091730790917407D0
:10059000019690937407809373076091730770912D
:1005A000740780913A060E948B3C10923906109293
:1005B000380680913A06882319F010923A0603C053
:1005C00081E080933A0660E070E080913A060E94F4
:1005D000FA3A4CC08091D806882311F410924E004C
:1005E0001092370680911307803278F580911307B7
:1005F000282F3327C901820F931FFC01E95EF84FB2
:1006000080819181009709F180911307282F33276A
:10061000C901820F931FFC01E95EF84F60E0808101
:1006200091810E94611C80911307282F3327C901F3
:10063000820F931FFC01E95EF84F118210828091B6
:1006400013078F5F809313073AC084E680936F0788
:10065000809132008F7D809332008091D006882374
:1006600019F484E1809342061092D0068091D80656
:10067000882329F10E943A018091F8068F5F8093C8
:10068000F8068091F806282F33278091080490916E
:1006900009042817390799F41092F8068091830607
:1006A000882369F08091690690916A0622E0803083
:1006B000920728F460913F0680E00E94CC3B21968F
:1006C000F894DEBFCDBFDF91CF91FF91EF91BF9145
:1006D000AF919F918F917F916F915F914F913F91DA
:1006E0002F910F900FBE0F901F9018951F920F9291
:1006F0000FB60F9211242F933F934F935F936F93F5
:100700007F938F939F93AF93BF93EF93FF93CF9379
:10071000DF93CDB7DEB78DE38093520080916F07F2
:10072000882329F080916F07815080936F07809113
:100730007007882389F0809170078150809370073B
:10074000882351F480913706882311F40E943426BF
:100750008091BF0680937007DF91CF91FF91EF9159
:10076000BF91AF919F918F917F916F915F914F91C9
:100770003F912F910F900FBE0F901F9018951F92D1
:100780000F920FB60F9211242F933F934F935F93C5
:100790006F937F938F939F93AF93BF93EF93FF9349
:1007A000CF93DF93CDB7DEB72197DEBFCDBF87EF05
:1007B00092EC90938900809388008091C0068823F2
:1007C00051F08091F706882331F080913706882315
:1007D00011F40E94982C8091F006893019F489E078
:1007E0000E94780980914206882339F1809137066A
:1007F000882319F58EE00E944729809142069927A7
:100800004AE050E062E276E00E946A4F0E942429AA
:1008100080E20E94E7288091420681508093420640
:10082000882359F48091D106882329F48091FF060A
:10083000882309F402C00E946B208091410688231E
:1008400029F0809141068150809341068091A8064D
:10085000882351F08091A80681508093A8068823B0
:1008600019F483E00E9478098091FE068823A9F09C
:100870008091E906803121F40E949B291092E906BB
:100880008091E906805C0E9447298FEF0E94E7284B
:100890008091E9068F5F8093E90680910E07909121
:1008A0000F07009781F080910E0790910F07019735
:1008B00090930F0780930E07009729F480915D07AE
:1008C000816080935D078091D6069091D70600974E
:1008D00069F08091D6069091D70601979093D7063C
:1008E0008093D606009711F40E94DB241982898137
:1008F000883048F58981282F3327C901820F931F3B
:10090000FC01E654F84F808191810097C1F0898104
:10091000282F3327C901820F931FDC01A654B84F3B
:100920008981282F3327C901820F931FFC01E654C8
:10093000F84F80819181019711969C938E938981C4
:100940008F5F8983D4CF2196F894DEBFCDBFDF912E
:10095000CF91FF91EF91BF91AF919F918F917F9137
:100960006F915F914F913F912F910F900FBE0F901C
:100970001F9018951F920F920FB60F9211242F936C
:100980003F934F935F936F937F938F939F93AF9317
:10099000BF93EF93FF93CF93DF93CDB7DEB7109262
:1009A00049001092480084E08093F40610920007FA
:1009B00082E390E00E94BA38809120009927807FDE
:1009C000907095958795959587959595879595952B
:1009D00087950E94851C8CE00E9447298091200009
:1009E0009927807F90709595879595958795959592
:1009F000879595958795805D0E94E728DF91CF9137
:100A0000FF91EF91BF91AF919F918F917F916F91E6
:100A10005F914F913F912F910F900FBE0F901F90BC
:100A200018951F920F920FB60F9211242F933F9398
:100A30004F935F936F937F938F939F93AF93BF93E6
:100A4000EF93FF93CF93DF93CDB7DEB782E390E0D0
:100A50000E94BA380E94412A0E941D2B0E9449160A
:100A6000DF91CF91FF91EF91BF91AF919F918F91C6
:100A70007F916F915F914F913F912F910F900FBE9A
:100A80000F901F9018951F920F920FB60F9211247E
:100A90002F933F934F935F936F937F938F939F9386
:100AA000AF93BF93EF93FF93CF93DF93CDB7DEB7B1
:100AB0008091A207882309F047C010928206109205
:100AC000F5061092C4068091F006833029F08091DB
:100AD000F006843009F038C080912300886080934C
:100AE000230081E08093FF068091F0068330A9F413
:100AF0000E9479291092F7068AE194E00E94242945
:100B000083E08093FD0684EF91E00E94BA3860E0B4
:100B100088E795E00E943A2714C08091F00684305F
:100B200081F41092F5061092C40684E08093FD06CD
:100B300084EF91E00E94BA3860E08CED95E00E946D
:100B40003A2784E180934206DF91CF91FF91EF91A4
:100B5000BF91AF919F918F917F916F915F914F91D5
:100B60003F912F910F900FBE0F901F9018951F92DD
:100B70000F920FB60F921124CF93DF93CDB7DEB74C
:100B8000DF91CF910F900FBE0F901F901895CF93CC
:100B9000DF93CDB7DEB728970FB6F894DEBF0FBE50
:100BA000CDBF84EE90E00E94AA398093C00683EE08
:100BB00090E00E94AA398093D1064AE050E062EDAD
:100BC00070E085EC96E00E9408398091C5068F3F61
:100BD00051F444E050E060E370E085EC96E00E9460
:100BE000114F1092C9061092CF06CE0101960E94B5
:100BF000EC2B84E190E00E94AA398093F1061886DC
:100C00008885863008F06AC08885992782959295F4
:100C1000907F9827807F9827BC01685E7F4F8885EA
:100C2000282F3327C901820F931FFC01E354FC4F87
:100C300040E150E0808191810E9408398885282F09
:100C40003327C901820F931FFC01E354FC4F8081BD
:100C50009181FC013F9610828885282F3327C90196
:100C6000820F931FFC01E354FC4F0190F081E02DB3
:100C700080818F3F79F58885282F3327C901820F1E
:100C8000931FFC01E354FC4F0190F081E02D888517
:100C90008F5C80838885282F3327C901820F931F9B
:100CA000FC01E354FC4F80819181019649E050E0C2
:100CB0006EE270E00E94114F8885282F3327C9010A
:100CC000820F931FFC01E354FC4F80819181FC0152
:100CD0003A96108288858F5F888792CF44E050E0F3
:100CE00061E274E08091BD039091BE030E94044FC5
:100CF00028960FB6F894DEBF0FBECDBFDF91CF911F
:100D00000895CF93DF93CDB7DEB7109201078FEF31
:100D1000809359071092F7061092FF0697EF809183
:100D20002800982380E8892B809328008FEF8093F8
:100D30003A008FEF80933B0080EE8093340088E090
:100D40008093220080EF8093620088E080932200ED
:100D50008FE08093640086EF8093370080E3809378
:100D6000310080E1809332001092650086E6809326
:100D7000380084E0809323001092580083EF809322
:100D80005A0080ED809359000E946C290E94D82B54
:100D90008091C006882319F00E94982C02C00E94FE
:100DA00091290E946C2E80918D078093BF060E942E
:100DB000C7050E946B2D0E949E2B0E949E280E94B8
:100DC0008D2878940E9454400E94B3280E943D4789
:100DD00086E00E947347DF91CF910895CF93DF9310
:100DE000CDB7DEB722970FB6F894DEBF0FBECDBFEA
:100DF00089839091C2068981890F8A838A81282FED
:100E00003327C901820F931FFC01E354FC4F60811B
:100E1000718182E296E00E94304F809123068E32EB
:100E200029F48091C2068F5C809322068091C206CD
:100E3000282F3327C901820F931FDC01A354BC4F15
:100E40008A81282F3327C901820F931FFC01E354A5
:100E5000FC4F6D917C91808191810E94304F8A81FD
:100E6000282F3327C901820F931FFC01E354FC4F45
:100E700080819181FC01319680818E3279F48A8162
:100E8000282F3327C901820F931FFC01E354FC4F25
:100E90000190F081E02D8A818F5C80838091C20671
:100EA000282F3327C901820F931FFC01E354FC4F05
:100EB00062E276E0808191810E94304F8A810E94B7
:100EC000590822960FB6F894DEBF0FBECDBFDF9152
:100ED000CF910895CF93DF93CDB7DEB722970FB6AA
:100EE000F894DEBF0FBECDBF89836A83898180936A
:100EF000F0068A818093720760E080E00E947908A2
:100F000022960FB6F894DEBF0FBECDBFDF91CF9112
:100F10000895CF93DF93CDB7DEB71092A8068BE08C
:100F20008093F00686E08093720760919606809128
:100F30000D070E947908DF91CF910895CF93DF9339
:100F4000CDB7DEB722970FB6F894DEBF0FBECDBF88
:100F500089836A838AE08093F00682E08093720737
:100F60006A8189810E94790822960FB6F894DEBFC3
:100F70000FBECDBFDF91CF910895CF93DF93CDB753
:100F8000DEB761E08DE00E946A07DF91CF9108959E
:100F9000CF93DF93CDB7DEB762E08EE10E946A07A0
:100FA000DF91CF910895CF93DF93CDB7DEB721972F
:100FB0000FB6F894DEBF0FBECDBF89838981882329
:100FC000F9F01092DD079091C20685E1989FC0016B
:100FD00011248D5F9E4F40E150E0BC0186EE97E00A
:100FE0000E9408390E9479290E949432882341F492
:100FF00086E294E00E94242982E30E94E72804C04C
:1010000064E08EE00E946A0721960FB6F894DEBF76
:101010000FBECDBFDF91CF910895CF93DF93CDB7B2
:10102000DEB768E084E10E946A07DF91CF910895FE
:10103000CF93DF93CDB7DEB783E0809359078091DC
:10104000D1068093840664E08CE00E946A07DF91F9
:10105000CF910895CF93DF93CDB7DEB765E08BE1F5
:101060000E946A07DF91CF910895CF93DF93CDB7A8
:10107000DEB762E081E10E946A07DF91CF910895B7
:10108000CF93DF93CDB7DEB722970FB6F894DEBFCC
:101090000FBECDBF89836A8362E085E10E946A0743
:1010A00022960FB6F894DEBF0FBECDBFDF91CF9171
:1010B0000895CF93DF93CDB7DEB722970FB6F8949C
:1010C000DEBF0FBECDBF89831A828981853021F4AE
:1010D00084E0898381E08A8366E089E10E946A076F
:1010E00022960FB6F894DEBF0FBECDBFDF91CF9131
:1010F0000895CF93DF93CDB7DEB722970FB6F8945C
:10110000DEBF0FBECDBF89836A838A818093340698
:1011100089818093350699818A81890F8093C206DF
:101120008FEF809309018091F006803131F483E1E3
:1011300090E00E94AA39809309010E94350D229601
:101140000FB6F894DEBF0FBECDBFDF91CF910895EB
:10115000CF93DF93CDB7DEB70E9479298091340613
:10116000282F3327C901280F391F8091D906909164
:10117000DA06F901E80FF91F808191810E94242984
:1011800080917E06282F3327809134069927820F7D
:10119000931F0E94AA39809310070E940009DF91D3
:1011A000CF910895CF93DF93CDB7DEB7809134060A
:1011B0008E5E8093F00684E180937E0684EE92E05A
:1011C0009093DA068093D9060E94A808DF91CF9108
:1011D0000895CF93DF93CDB7DEB7809134068A5E52
:1011E0008093F00686E180937E0688E093E09093FA
:1011F000DA068093D9060E94A808DF91CF9108955E
:10120000CF93DF93CDB7DEB721970FB6F894DEBF4B
:101210000FBECDBF0E94980B80911007813118F04E
:1012200080E1809310078091F006833129F080914E
:10123000F006823109F015C08BE00E944729909199
:10124000100786E0989FC00111244AE050E062E256
:1012500076E00E946A4F0E94242985E20E94E728D6
:1012600017C08AE00E9447299091100784E6989F52
:10127000C00111244AE050E062E276E00E946A4F29
:101280000E9424298CEB0E94E72883E60E94E7282D
:1012900080E20E94E72880911007882319F480E2F9
:1012A0000E94E72880E40E944729198289818031C1
:1012B000B4F48981282F332727FD309580911007BA
:1012C00099272817390724F48FEF0E94E72803C0D5
:1012D0008FEE0E94E72889818F5F8983E7CF21966F
:1012E0000FB6F894DEBF0FBECDBFDF91CF9108954A
:1012F000CF93DF93CDB7DEB724970FB6F894DEBF58
:101300000FBECDBF898389818093F0060E94792921
:101310008981813268F48981282F3327C901820F9E
:10132000931FFC01EC51FE4F808191810E94242982
:101330000E94980B8981813031F40E94982C82E2BE
:1013400096E00E94072A8981833059F40E949129EE
:101350008FEF8093F7068091C006882311F00E94DA
:10136000982C8981863041F581E190E00E94AA396C
:101370008A838A81873020F080E30E94E72819C0A1
:101380008A819927FC01EF5FFB4F80819927880FA5
:10139000991F880F991F880F991F4AE050E062E259
:1013A00076E00E946A4F61E374E00E941B4F0E9446
:1013B000242989E20E94E7288981873079F44AE06C
:1013C00050E062E276E08091F7079091F8070E9482
:1013D0006A4F0E94242989E20E94E7280E948729F7
:1013E00080E40E9447298981883009F0C8C00E94A2
:1013F00091298BE28A838DE28B838091DF078C8336
:101400008091E507813041F48FEF8A838FEE8B83E3
:101410008091E0078C837AC08091E507823009F0E3
:1014200075C00E947929198289818430A0F589814B
:101430009927880F991F880F991F0E94472980912B
:10144000DF07282F33278981992702C035952795F3
:101450008A95E2F7C901817090700097A1F08981A7
:10146000282F3327C901820F931FFC01E25AF84F3E
:101470004AE050E062E276E0808191810E946A4F0A
:101480000E94242904C084E394E00E9424298981D5
:101490008F5F8983C9CF19828981843008F02BC17D
:1014A00089819927880F991F880F991F805C0E9456
:1014B00047298091DF07282F3327898199270496B0
:1014C00002C0359527958A95E2F7C9018170907021
:1014D0000097A1F08981282F3327C901820F931F1C
:1014E000FC01EA59F84F4AE050E062E276E0808180
:1014F00091810E946A4F0E94242904C084E394E0F1
:101500000E94242989818F5F8983C6CF19828981AE
:101510008830A8F58091E5078130A1F48091DF073C
:10152000282F33278981992702C0359527958A95D9
:10153000E2F7C90181709070009721F488E50E945C
:10154000E72816C08C81282F33278981992702C06C
:10155000359527958A95E2F7C901817090700097BB
:1015600021F08A810E94E72803C08B810E94E7282E
:1015700080E20E94E72889818F5F8983C8CF8981B3
:10158000893009F05CC08091BF068093700780911C
:1015900038008068809338000E94792988E394E0BD
:1015A0000E9424294AE050E062E276E08091AC0695
:1015B0009091AD060E946A4F0E94242989E00E9402
:1015C00047298DE394E00E9424294AE050E062E23A
:1015D00076E08091EC069091ED060E946A4F0E94A1
:1015E000242980E40E94472982E494E00E9424296F
:1015F0004AE050E062E276E08091AA069091AB0664
:101600000E946A4F0E94242989E40E94472987E4A6
:1016100094E00E9424298091F607282F3327C901DE
:10162000820F931FFC01E25AF84F4AE050E062E259
:1016300076E0808191810E946A4F0E9424298981ED
:10164000883109F44FC089818A3151F580E40E94C4
:1016500047298091C206282F3327C901820F931F83
:10166000FC01E354FC4F80819181FC013196808123
:101670008E32C1F18091C206282F3327C901820F13
:10168000931FFC01E354FC4F6081718182E296E07C
:101690000E94304F0E94242980E40E94472922C0E2
:1016A00089818C3109F41EC089818F31D9F48091F0
:1016B000F607282F3327C901820F931FFC01EA5137
:1016C000F84F80819181AA27BB272AE030E042E2CF
:1016D00056E0BC01CD010E948B4F0E94242980E47A
:1016E0000E9447298981833021F08981843009F063
:1016F00002C00E94912924960FB6F894DEBF0FBE57
:10170000CDBFDF91CF910895CF93DF93CDB7DEB7F3
:101710001092F7068BE08093100782E00E94780910
:101720008AE08093A8060E94980BDF91CF910895DC
:10173000CF93DF93CDB7DEB741E150E060E070E0DA
:1017400082E296E00E94114F10923306DF91CF9112
:101750000895CF93DF93CDB7DEB721970FB6F894F6
:10176000DEBF0FBECDBF809133069927FC01EF5D30
:10177000F94F80818983809133069927FC01EF5DC1
:10178000F94F1082809133069927FC01EC57F94FED
:10179000108289818A3339F08981803221F08981F0
:1017A0008E3209F002C00E944F0D0E944F0D21960B
:1017B0000FB6F894DEBF0FBECDBFDF91CF91089575
:1017C000CF93DF93CDB7DEB71092F70684E0809316
:1017D00010078091F006843019F483E0809310079D
:1017E00082E00E9478090E94980BDF91CF910895C2
:1017F000CF93DF93CDB7DEB71092F70680E00E945B
:10180000780910921107DF91CF910895CF93DF935C
:10181000CDB7DEB726970FB6F894DEBF0FBECDBFAB
:1018200089838091F0068A831C821B8289E592E07D
:101830009093DA068093D9068A818A3039F485E755
:1018400092E09093DA068093D9068EC08A818C301C
:1018500039F484ED92E09093DA068093D90684C03F
:101860008A818D30D1F40E94980B6CE474E082E29E
:1018700096E00E941B4F9E012D5F3F4F8981992763
:101880004AE050E0B9010E946A4FBC0182E296E052
:101890000E941B4F9E838D8378C08A818E3039F4DD
:1018A00086E992E09093DA068093D9065DC08A813A
:1018B000803139F48BEF92E09093DA068093D90669
:1018C00053C08A81813139F484EE92E09093DA0634
:1018D0008093D90649C08A818431D9F40E94980B3B
:1018E00064E574E082E296E00E941B4F9E012D5F4A
:1018F0003F4F8981992701964AE050E0B9010E9443
:101900006A4FBC0182E296E00E941B4F9E838D834A
:101910003CC08A81853139F488E093E09093DA06FF
:101920008093D90621C08A81893121F08A81803251
:1019300009F007C08DEB93E09093DA068093D90607
:1019400013C08A818B3139F48CE293E09093DA06EC
:101950008093D90609C08A818E3131F48DEA92E0F4
:101960009093DA068093D9068981282F3327C901FD
:10197000280F391F8091D9069091DA06F901E80FF6
:10198000F91F808191819E838D838D819E81269612
:101990000FB6F894DEBF0FBECDBFDF91CF91089593
:1019A000CF93DF93CDB7DEB723970FB6F894DEBFA2
:1019B0000FBECDBF89836A8389818B838091F006B6
:1019C0008D3019F489818F5F8983909135068981E3
:1019D000890F0E94060C0E942429909134068B8165
:1019E000981741F48A81855F0E9447298AE594E02F
:1019F0000E94242980913506282F33278981992731
:101A0000280F391F8091590799272817390729F07E
:101A1000809109018F3F09F41FC08A81815F0E9474
:101A2000472980918406882381F480910901482FF9
:101A3000552780913506282F332789819927820FD2
:101A4000931F4817590709F004C08FEF0E94E72839
:101A500003C08FEE0E94E72823960FB6F894DEBFEE
:101A60000FBECDBFDF91CF910895CF93DF93CDB758
:101A7000DEB70E9479290E94912960E080E00E94EF
:101A8000D00C80E40E94472980917207823020F0B8
:101A900060E481E00E94D00CDF91CF910895CF9354
:101AA000DF93CDB7DEB78091430681508093430624
:101AB0000E94472980E20E94E728809133068150E6
:101AC00080933306DF91CF9108950F931F93CF93A7
:101AD000DF93CDB7DEB724970FB6F894DEBF0FBE05
:101AE000CDBF89838091F0068A83809133068C83F1
:101AF0008A818B3029F18A818A3011F18A818C3078
:101B0000F9F08A818D30E1F08A818E30C9F08A81C6
:101B10008031B1F08A81813199F08A81843181F0FC
:101B20008A81853169F08A81893151F08A818B31CE
:101B300039F08A818E3121F08A81803209F057C0D4
:101B400089818C30C9F480913406882319F0109271
:101B5000340612C080913506882331F08091350615
:101B600081508093350608C080917207825080931F
:101B7000350681E08093340689818031E9F48091D3
:101B80003406882321F481E08093340615C08091C7
:101B90003506282F33278091720799270297281737
:101BA000390734F4809135068F5F8093350604C081
:101BB00010923506109234069091350680913406C5
:101BC000890F8093C2069091C20680917207981780
:101BD00039F09091340680917207981709F004C08B
:101BE0001092C206109234060E94350D2EC18A81D1
:101BF000853039F08A81823021F08A81813209F082
:101C00000CC089818C3009F020C180914306813459
:101C100008F41BC10E94A90B18C18A81882399F07E
:101C20008A81863081F08A81873069F08A818831A3
:101C300051F08A818A3139F08A818F3121F08A818D
:101C4000813009F074C08981883041F58091430664
:101C5000813408F466C00E94A90B809133068B83FF
:101C60008B81803198F48B819927DC01AE5DB94F6F
:101C70008B819927FC01ED5DF94F80818C9380E287
:101C80000E94E7288B818F5F8B83EACF80E40E94DC
:101C9000472982E296E00E94242943C01B82898161
:101CA0008C3039F4809143068134B0F08FEF8B8310
:101CB00013C08981803181F480914306803560F4BE
:101CC0008C81082F112782E296E00E94374F081777
:101CD000190710F481E08B838B81882311F18C81AB
:101CE000282F33278B819927820F931FFC01EE5DEC
:101CF000F94F80818A838A818A3339F08A818032E0
:101D000021F08A818E3209F006C0809133069B81D2
:101D1000890F80933306809133069B81890F8093CE
:101D2000330680913306805C809343068EC08A819F
:101D3000823151F08A81833139F08A81863121F0F4
:101D40008A81873109F01FC08981803151F48091E7
:101D50001007803178F4809110078F5F809310070F
:101D600009C080911007882329F0809110078150C5
:101D7000809310070E9400098A81823109F065C0B2
:101D80000E94151862C08A81893039F08A818C31AD
:101D900021F08A818D3109F05CC089818C30E9F5B0
:101DA00080914306813408F450C08C81873059F407
:101DB00082E296E00E94374F80933306809133068B
:101DC000805C0E9447298A81893021F08C8187308C
:101DD00008F009C08C819927FC01EF5DF94F108252
:101DE0000E944F0D32C08C81883078F18C81992708
:101DF000FC01EF5DF94F80E38083809143068150C1
:101E0000809343060E94472980E30E94E72880913F
:101E1000330681508093330618C089818031A9F43C
:101E200080914306803588F480913306873068F0CE
:101E30008A81893051F0809143068F5F80934306F9
:101E4000809133068F5F80933306809143060E9412
:101E5000472924960FB6F894DEBF0FBECDBFDF91A1
:101E6000CF911F910F910895CF93DF93CDB7DEB738
:101E700026970FB6F894DEBF0FBECDBF8983809141
:101E8000F0068A83809133068C8389819927FC012F
:101E9000E65FFE4F80818D838D8180538E838A81A2
:101EA000803219F483E00E9478098A818330C1F47A
:101EB0008C81882361F48981873091F41092F70630
:101EC00080E00E94590880E28093F006D6C18C81A0
:101ED000882331F40E94F80B1A8281E08093110765
:101EE0008A81823041F18A81882329F18A81813077
:101EF00011F18A818530F9F08A818630E1F08A819A
:101F00008730C9F08A818830B1F08A81893099F0B0
:101F10008A81883181F08A818A3169F08A818C31A5
:101F200051F08A818D3139F08A818F3121F08A8197
:101F3000813209F0A2C18A81823290F48A81992784
:101F4000FC01EA5CFC4F8081882351F08A8199274B
:101F5000FC01EA5CFC4F90818C81981708F48DC1DC
:101F60008A81813081F18A81893069F18A81803268
:101F700051F18A818C3139F18A818D3121F18FE0E3
:101F80008B839B818C81891780F48B819927DC015D
:101F9000AE5DB94F8B819927FC01EF5DF94F8081D0
:101FA0008C938B8181508B83ECCF8C818F5B0E94D3
:101FB00047298C8199278D5D994F0E9424298C8116
:101FC000805C0E9447298C819927FC01EE5DF94FC6
:101FD0008D8180838C818F5F8C838A81863051F0E4
:101FE0008A81873039F08A81883121F08A818F3166
:101FF00009F004C08D810E94E728E0C08A81823008
:1020000021F08A81853009F004C08AE20E94E72825
:10201000D5C08A81813059F58D810E94E7288C8155
:10202000823019F48AE389830FC08C81853019F4DA
:1020300080E2898309C08C81883021F08C818B30CB
:1020400009F00FC18EE2898389810E94E7288C8183
:102050009927FC01EE5DF94F898180838C818F5F28
:102060008C83809143068F5F80934306A7C08A814B
:10207000883009F043C08E81882309F58091E507F7
:102080008F5F8093E507833011F41092E50780910C
:10209000E507882351F08091BF06809370078091F7
:1020A000380080688093380008C0109270078FE76E
:1020B000909138008923809338001092E007809136
:1020C000E5078823B9F48E818930A0F48E818823B6
:1020D00089F08E8199279C012150304081E090E069
:1020E00002C0880F991F2A95E2F72091DF07822707
:1020F0008093DF0788E00E94780960C08A81893078
:1021000009F04CC08C818C3009F4B7C08C818130CF
:1021100021F08C81883009F035C08C81813039F410
:102120008091E1079091E207009709F01E828C816F
:10213000883041F48091E3079091E407009711F013
:1021400087E08E838E81282F332781E190E0821BE8
:10215000930B9C018E8199278E5D994FA90160E0B8
:1021600070E00E94114F8C819927FC01EF5DF94FBF
:102170008D8180838FE594E00E9424298E81805C8C
:102180000E9447298D810E94E7288C818430B1F418
:1021900087E08C8386E48093430610C08A818C316B
:1021A00021F08A818D3109F009C08C81843019F4C5
:1021B0000E94E11262C08D810E94E7288A818F31DE
:1021C000C9F48C818130B1F441E150E060E070E00D
:1021D00082E296E00E94114F8C819927FC01EF5D0D
:1021E000F94F8D8180838FE594E00E94242980E45B
:1021F000809343068A818823E9F48091110788231C
:1022000019F48E810E9414258D810E94E7288C810B
:10221000813041F441E150E060E070E085E896E013
:102220000E94114F8C819927FC01EC57F94F8D8149
:10223000808317C08A818A3121F48D810E94E7282A
:1022400010C08A81813269F48C81813039F40E9416
:10225000980B0E949B298D81809322068D810E947C
:10226000E7288C8180933306809143068F5F8093AB
:102270004306809143060E94472926960FB6F8949C
:10228000DEBF0FBECDBFDF91CF910895CF93DF9317
:10229000CDB7DEB722970FB6F894DEBF0FBECDBF25
:1022A0008091F0068983809110078A830E9491298A
:1022B0008FEF8093590789818230B9F48A81833006
:1022C00049F484E00E9478090E9491298FEF80935D
:1022D000F706B3C08A818B3021F08A81843009F0FF
:1022E000ACC083E00E947809A8C089818B3021F0BE
:1022F0008981833009F004C083E00E9478099DC081
:102300008981813081F089818A3069F089818C30BE
:1023100051F08981853139F089818B3121F08981B2
:10232000813109F003C00E94890787C08981863006
:1023300039F089818D3021F089818F3009F005C015
:1023400060E080E00E949E0778C089818E3019F499
:102350000E94890772C08981873039F0898188306D
:1023600021F08981843109F010C080917E0680932C
:10237000DF07109270079FE78091380089238093D0
:10238000380080E00E94D30758C08981893059F411
:10239000109270078FE7909138008923809338005E
:1023A0000E94C8074AC08981803121F08981893122
:1023B00009F003C00E94180840C08981823121F0D1
:1023C0008981833109F003C00E94350836C08981B4
:1023D000863139F08981873121F08981883109F08E
:1023E00005C060E080E00E94400827C08981882302
:1023F00041F480911107882321F083E00E9478093D
:102400001CC089818A3121F480E00E94590815C0DE
:1024100089818C3121F089818D3109F003C00E94BE
:102420002A080BC089818E3119F40E940D0805C05D
:1024300089818F3111F40E94C8078981853011F498
:102440000E942A0822960FB6F894DEBF0FBECDBFB9
:10245000DF91CF910895CF93DF93CDB7DEB7229769
:102460000FB6F894DEBF0FBECDBF85E896E00E94A0
:10247000374F8A83198299818A81981708F05CC046
:1024800089818E5B0E94472980E20E94E72889812A
:102490009927FC01EB57F94F80818E3B81F58981AB
:1024A000813029F488EE93E00E94BA3831C08A81E5
:1024B000282F332789819927281B390BC9010197B8
:1024C000833091052CF5898199278A57994F0E946D
:1024D0009E4E89838981803110F08FE089838981C4
:1024E000282F332788EE93E0289FA001299F500DC5
:1024F000389F500D1124CA010E94BA381DC089812D
:102500009927FC01EB57F94F808180530E941425D5
:1025100089818E5B0E94472989819927FC01EB57AD
:10252000F94F80810E94E72884EF91E00E94BA3839
:1025300089818F5F89839FCF22960FB6F894DEBF83
:102540000FBECDBFDF91CF910895CF93DF93CDB76D
:10255000DEB765EC76E082E296E00E94264F0097B7
:1025600071F0609126017091270182E296E00E944D
:10257000264F009721F082E00E9478091FC08091C9
:1025800010078B3051F480E00E94343810920D0710
:10259000109296060E94890711C08091100784301E
:1025A00019F40E94301C0AC080911007833031F466
:1025B00080E00E94343883E00E947809DF91CF9157
:1025C0000895CF93DF93CDB7DEB72B970FB6F8946E
:1025D000DEBF0FBECDBF809133069927FC01EE5DB3
:1025E000F94F108287E40E94472987E080933306E1
:1025F00082E296E00E946A3A9A8389831C821D8255
:102600001B828B81843008F057C08091F0068C319A
:1026100029F4E981FA8180818E8312C089819A81AF
:1026200098878F83AF81B8850E942350802DB8870B
:10263000AF838B878B8599279A87898789858E8336
:102640008E818031B0F48C819927FC01E75DF94FD0
:1026500080E3808380E30E94E7288C818F5F8C83F6
:1026600081E08D838B819927880F991F885B0E9459
:1026700047298C8199279C01275D394F8E819927A5
:1026800040E150E0B9010E946A4F0E945D4F0E94F4
:1026900024298C818F5F8C838D81882319F48C8110
:1026A0008F5F8C831D8289819A8101969A838983A9
:1026B0008B818F5F8B83A5CF87E40E9447292B9660
:1026C0000FB6F894DEBF0FBECDBFDF91CF91089556
:1026D000CF93DF93CDB7DEB72B970FB6F894DEBF5D
:1026E0000FBECDBF8091F00689838091C2068A8398
:1026F000809133068D838FEF8093590789818B30CA
:1027000089F58091350680930D078091340680937A
:1027100096068A81882321F481E00E94D307AEC205
:102720008A81813021F481E00E947809A9C28A81DE
:10273000823019F40E941808A1C28A81833019F4EA
:102740000E9435089BC28A81843029F460E080E0D1
:102750000E94400893C28A81853009F08FC20E948E
:102760002A088CC28981882309F488C28981823031
:1027700019F40E94A51282C28981813059F40E9405
:102780006F17882319F00E94890778C281E00E94A0
:10279000780976C28981853029F40E94E7170E9462
:1027A00089076CC289818C3099F58A81882321F44C
:1027B00080E00E94590862C28A81813051F40E94EF
:1027C000792986E694E00E94242981E0809301071C
:1027D00055C28A81823029F462E080E10E946A0752
:1027E0004DC28A81833009F049C21B868091D1068F
:1027F000882311F421E02B878B858093D10660918B
:10280000D10683EE90E00E94C9390E94180836C2B2
:1028100089818A3071F48A81882319F40E94BD0766
:102820002DC28A81813009F029C286E00E94780990
:1028300025C28981863009F050C08D819927FC011D
:10284000EF5DF94F8081803349F48D819927FC0138
:10285000E05EF94F8081803309F404C086E00E9475
:1028600078090EC28D819927FC01E05EF94F118233
:10287000108282E296E00E949E4E9C838B838B8125
:102880009C8196958795969587959695879589834A
:102890001A828A81873070F48A819927FC01EF5F60
:1028A000FB4F90818981981709F404C08A818F5F5A
:1028B0008A83EFCF8A81873021F486E00E947809ED
:1028C000DFC16A8181E190E00E94C9390E949E2B9C
:1028D00060E080E00E949E07D1C189818D3021F4A3
:1028E00081E00E94D307CAC189818E3021F58A8197
:1028F000833031F480913800806880933800BEC105
:102900008A81882351F48091DF0780937E0610929C
:10291000E50788E00E947809B1C18A81813019F405
:102920000E940D08ABC18A81823009F0A7C187E0FF
:102930000E947809A3C18981873051F482E296E030
:102940000E949E4E0E94BA3280E00E94D30796C138
:102950008981803149F480913406809309010E9475
:1029600008180E9418088AC18981893121F48AE1F6
:102970000E94780985C18981813119F40E94D208A9
:102980007DC18981823121F08981833109F005C0BF
:102990000E9415180E94350871C18981883071F430
:1029A0000E94DC32109270078FE7909138008923E3
:1029B0008093380080E00E94D30760C18981843110
:1029C00031F48A818093F6070E94C80757C1898134
:1029D0008531A1F48A81882319F40E94E9084EC147
:1029E0008A81813019F40E94E90848C18A818230C5
:1029F00009F044C188E10E94780940C1898186318B
:102A000021F08981873109F011C08091340699271E
:102A10004696609110070E94C33380918D07809382
:102A2000BF0660E080E00E94400828C189818930AB
:102A300031F58D81873038F487E40E94472987E09B
:102A4000809333061DC11092260610922D0682E255
:102A500096E00E949E4E9093E2078093E10789E200
:102A600096E00E949E4E9093E4078093E307809146
:102A7000C2060E94933380E00E94D307FFC0898181
:102A8000883141F482E296E00E94CA3788E10E94D0
:102A90007809F4C089818A3121F08981813209F075
:102AA00025C080913306882321F48A810E94132453
:102AB00012C08A81282F3327C901820F931FFC017E
:102AC000E354FC4F62E276E0808191810E94304FB6
:102AD0008A810E94021C8A810E94590889818A3158
:102AE00009F4CCC080E28093F006C8C089818B31A4
:102AF000A1F58A81882321F48CE10E9478091FC006
:102B00008A81813021F48DE10E94780918C08A8180
:102B10008230A9F40E94792986E794E00E94242952
:102B200080E40E94472980910701909108010E944A
:102B3000242988EE93E00E94BA380E942A088A81EC
:102B4000833021F485E00E94780998C08A8184301E
:102B500009F094C00E94892391C089818C3121F0B1
:102B600089818D3109F054C08D81873018F40E941D
:102B7000E11286C082E296E00E946A3A9F838E83C9
:102B80001C821B828B819C818430910508F03DC0A2
:102B90008B819C81880F991FFC01E75DF94F808133
:102BA000809322068B819C81880F991FFC01E65D32
:102BB000F94F8081809323061092240682E296E0EA
:102BC0000E946A3A9C838B8389818C3129F4EE813F
:102BD000FF818B8180830EC08E819F81998788873A
:102BE0008B818A87A885B9858A85082E0E943050F6
:102BF000B987A8878E819F8101969F838E838B8161
:102C00009C8101969C838B83BDCF0E942A0836C08D
:102C100089818E3171F48A81882321F489E00E94B0
:102C200078092EC08A81813049F58FE10E947809A8
:102C300025C089818F31C9F482E296E00E94CB4E93
:102C4000DC01CB019C838B838B819C812EE08131C5
:102C5000920720F08FE10E94780910C08B819C813F
:102C60000E944B380E94C80709C08981803231F424
:102C70008AE10E94780981E28093F0060E94980B15
:102C80002B960FB6F894DEBF0FBECDBFDF91CF916C
:102C90000895CF93DF93CDB7DEB723970FB6F8949F
:102CA000DEBF0FBECDBF89838091F0068A83898104
:102CB000882309F40BC180916F07882309F006C1AE
:102CC00089810E94602B89818A3029F480912300B8
:102CD00088608093230089818B3011F40E945727EC
:102CE0008AE080936F0789818093120789818D30F4
:102CF00031F4809171078F5F8093710702C0109249
:102D0000710780917107853049F48091F006833016
:102D100011F40E94840B10927107D8C0898184310C
:102D200059F089818E3009F051C08A81833021F0B9
:102D30008A81843009F04AC08A818C3121F480E094
:102D40000E94340FC3C08A818330C1F48091D606BB
:102D50009091D706009779F01092D7061092D60678
:102D600063E082EE90E00E94C9391092FE0683E093
:102D70000E947809ABC00E941927A8C08A818430BC
:102D800009F0A4C0109270079FE780913800892352
:102D90008093380080E00E94343883E00E947809F4
:102DA00010920F0710920E071092C30663E082EE96
:102DB00090E00E94C93981E08093D0068EE096E0D1
:102DC0000E94C22281E00E94122380C08981883043
:102DD000B9F58A81813089F41B828091C0068823ED
:102DE00011F481E08B838B818093C0066091C006D3
:102DF00084EE90E00E94C93969C08A81813221F055
:102E00008A818A3109F004C08FE00E94340F5EC0CD
:102E10008A818C3121F484E00E94340F57C08A816A
:102E2000833051F48091D6069091D706009709F02F
:102E30004DC00E94840B4AC088E00E94650D46C0C8
:102E400089818C3021F08981803109F016C0809110
:102E5000D6069091D7060097C9F58A81833049F448
:102E60008981803131F461E088E795E00E94611C3E
:102E70002DC089810E94650D29C089818D3019F48A
:102E80000E94461123C08981853018F089818F30D6
:102E900038F089818131A8F08981843108F011C02E
:102EA0008091D6069091D706009781F48A81893166
:102EB00021F489810E94272209C089810E94340F50
:102EC00005C089818F3011F40E94681323960FB6D4
:102ED000F894DEBF0FBECDBFDF91CF910895CF93A1
:102EE000DF93CDB7DEB729970FB6F894DEBF0FBEDC
:102EF000CDBFCE0101960E94EC2B8091220699272E
:102F0000C09782959295907F9827807F98272091EF
:102F10002306820F80538B83809125069927C097C3
:102F200082959295907F9827807F982720912606FA
:102F3000820F80538A831982809128069927C0972F
:102F400082959295907F9827807F982720912906D7
:102F5000820F80538D8380912B069927C09782958D
:102F60009295907F9827807F982720912C06820F3A
:102F700080538E838091310680538F838B8184327E
:102F800080F48A818A3568F489818A3550F48D818C
:102F9000823338F48E81833120F48F81863008F0BB
:102FA00003C01986188608C0CE0101960E942B2DF9
:102FB00081E090E0998788878885998529960FB662
:102FC000F894DEBF0FBECDBFDF91CF910895CF93B0
:102FD000DF93CDB7DEB74AE050E062ED70E082E209
:102FE00096E00E94453980912206882319F41092B8
:102FF000C5060BC082E296E00E94374FAC0162E248
:1030000076E085EC96E00E944E4FDF91CF910895D7
:10301000CF93DF93CDB7DEB76091090183E190E0F4
:103020000E94C939DF91CF910895CF93DF93CDB737
:10303000DEB78091340699274496609110070E946C
:10304000C939809110078093F106DF91CF910895DF
:10305000CEEFD0E1DEBFCDBF0E9479290E9481066C
:103060000E945F250E942A0184EF91E00E94BA38F5
:1030700081E08093D00688E795E00E94C22281E03B
:103080000E94122383E00E94780982EE90E00E9461
:10309000AA39843011F40E94192785EA99E10E9427
:1030A000ED38809137068823B1F40E94412A80913F
:1030B0000107882329F40E941D2B0E9449160BC08A
:1030C0000E941D2B89838981882329F089810E9490
:1030D000C3260E94851C80915D079927817090709E
:1030E0000097D9F28091F006843049F48091D1069E
:1030F000882319F00E945E1A02C00E946F1B809103
:103100000E0790910F07009741F68091C306882320
:1031100021F680915D078E7F80935D07BECFCF93B0
:10312000DF93CDB7DEB727970FB6F894DEBF0FBE9B
:10313000CDBF89836A834B8389818D839A818091F6
:10314000F406981731F580E00E9438206B81898160
:103150000E94D8188C838C81823029F482E090E020
:103160009F838E831AC08C81813041F79A81809130
:10317000F406981719F78981882301F38D8181500E
:103180008D838D818823D1F682E090E09F838E83AA
:1031900004C081E090E09F838E838E819F8127967B
:1031A0000FB6F894DEBF0FBECDBFDF91CF9108956B
:1031B000CF93DF93CDB7DEB725970FB6F894DEBF78
:1031C0000FBECDBF89836A838981882319F08981E5
:1031D000809341068091F406882309F059C00E942B
:1031E0009B298091F406882329F081E090E09D835B
:1031F0008C8352C01B828B818E3188F48AE090E0F0
:103200000E94BA388091F406882329F081E090E08A
:103210009D838C8341C08B818F5F8B83ECCF8A81B0
:10322000282F3327C901820F931FFC01EB50FC4F5D
:10323000808191810E9424298091F406882329F0BD
:1032400081E090E09D838C8327C01B828B818E312F
:1032500088F48AE090E00E94BA388091F4068823CE
:1032600029F081E090E09D838C8316C08B818F5F75
:103270008B83ECCF8981882309F4ACCF8091410600
:10328000882309F0A7CF82E090E09D838C8304C05F
:1032900081E090E09D838C838C819D8125960FB683
:1032A000F894DEBF0FBECDBFDF91CF910895CF93CD
:1032B000DF93CDB7DEB78091C3068823A1F180915B
:1032C0003B06882339F484EB90E090930F078093BA
:1032D0000E071CC080913B06813039F488E592E0EE
:1032E00090930F0780930E0711C080913B068230A8
:1032F00039F488E097E090930F0780930E0706C09B
:1033000080E19EE090930F0780930E0780913B062B
:103310008F5F80933B0680913B068A3021F41092A8
:103320003B061092C30680915D078E7F80935D07F8
:10333000DF91CF910895CF93DF93CDB7DEB7259777
:103340000FB6F894DEBF0FBECDBF89831A821B82F1
:103350001092F706809123008860809323001092DA
:10336000F5061092C40684E690E00E94BA388B817C
:103370008F5F8B831092C10680E00E94382060E04E
:10338000809114040E94D8188A838A81823029F49B
:1033900086E090E09D838C8386C08091F406833024
:1033A00009F079C08981282F3327C901820F931F23
:1033B000FC01E354FC4F40E150E06081718185E8FD
:1033C00096E00E94044F0E949B2989818F5C0E9495
:1033D000E7288EE20E94E72885E896E00E942429EB
:1033E00081E0809300071092EA06809159008F7B5C
:1033F000809359000E942B121092C10680E00E9417
:10340000382060E0809116040E94D8188A838A814F
:10341000823029F485E090E09D838C8344C00E9433
:10342000AA208091F406823029F482E090E09D8306
:103430008C8339C08091F406813089F581E08093D6
:10344000C10641E061E087E00E948F188A838A818B
:10345000823029F481E090E09D838C8324C08091A8
:10346000F406823029F485E090E09D838C831BC0B4
:103470008091F406843029F08091F406833009F0BD
:10348000E0CF0E94AA208091F406992787FD9095AD
:103490009D838C8308C08B81823008F468CF82E2E0
:1034A00090E09D838C838C819D8125960FB6F89446
:1034B000DEBF0FBECDBFDF91CF910895CF93DF93D5
:1034C000CDB7DEB722970FB6F894DEBF0FBECDBFE3
:1034D000198280915A07882309F0A7C00E94792990
:1034E00087E894E00E9424290E94980B80E40E94BF
:1034F000472984E08093FD061092E8068981863092
:1035000008F08EC08981282F3327C901820F931FAD
:10351000FC01E354FC4F80819181FC013196808154
:103520008E3209F47DC01092820689810E949B1917
:103530008A838A81843009F05CC081E080935A07D5
:1035400080910007882369F084E18093420660E05F
:1035500088E795E00E94611C80913706882309F076
:10356000FBCF0E94AA2088EC90E00E94BA3881E04C
:103570008093C10644E06091F40680E00E948F18B9
:103580008091F406833029F08091F406823009F0AE
:10359000E8CF0E94AA2088EE93E00E94BA380E94E9
:1035A0006B208091EA06882381F48091E8068F5F82
:1035B0008093E8068091E806833009F09FCF8981E7
:1035C0008F5F89831092E80699CF8091C306882384
:1035D00039F18091E8068F5F8093E8068091E806D4
:1035E000833009F08BCF89818F5F89831092E80641
:1035F00085CF0E946B200E94AA208091E8068F5FF1
:103600008093E8068091E806833029F489818F5FF2
:1036100089831092E80688EE93E00E94BA386ECF54
:1036200080E40E9447290E94571922960FB6F89409
:10363000DEBF0FBECDBFDF91CF910895CF93DF9353
:10364000CDB7DEB721970FB6F894DEBF0FBECDBF62
:1036500089831092F706809123008860809323006D
:103660001092F5061092C40684E690E00E94BA38E3
:103670008981282F3327C901820F931FFC01E3544E
:10368000FC4F40E150E06081718185E896E00E9446
:10369000044F0E949B2989818F5C0E94E7288EE25B
:1036A0000E94E72885E896E00E94242910920007EE
:1036B0001092EA061092E706809159008F7B809362
:1036C00059000E942B1284E18093420621960FB686
:1036D000F894DEBF0FBECDBFDF91CF910895CF9399
:1036E000DF93CDB7DEB723970FB6F894DEBF0FBEDA
:1036F000CDBF19821A820E94792987E894E00E943E
:1037000024290E94980B80E40E94472984E080933A
:10371000FD061092E8068981863008F053C0898141
:10372000282F3327C901820F931FFC01E354FC4F5C
:1037300080819181FC01319680818E3209F442C0F2
:10374000109282060E946B201B8289810E941E1BA0
:103750008091EA06882389F4809142068823C1F784
:103760000E94EF1B8A818F5F8A83833021F41A8243
:1037700089818F5F898381E08B838B81882309F026
:10378000CACF84E1809342068091E706882389F4BA
:10379000809142068823C1F70E94EF1B8A818F5FC8
:1037A0008A83843021F41A8289818F5F898381E042
:1037B0008B838B81882309F0AECF8091C306882349
:1037C00009F0A9CF0E9457190E946B2023960FB6CB
:1037D000F894DEBF0FBECDBFDF91CF910895CF9398
:1037E000DF93CDB7DEB70E946B200E9479298FE866
:1037F00094E00E9424298CE291E00E94BA38DF9183
:10380000CF910895CF93DF93CDB7DEB721970FB651
:10381000F894DEBF0FBECDBF898389819927829539
:103820009295907F9827807F9827BC01685E7F4F94
:103830008981282F3327C901820F931FFC01E3548C
:10384000FC4F40E150E0808191810E9445392196F2
:103850000FB6F894DEBF0FBECDBFDF91CF910895B4
:10386000CF93DF93CDB7DEB7109270071092A80602
:103870000E9479290E94980B84E00E9478098FEFBA
:103880008093F70680915D078E7F80935D0710928D
:10389000C30610923B0610920F0710920E0710926B
:1038A0006E0781E08093D00661E08CED95E00E9488
:1038B000611C80913800806880933800DF91CF913F
:1038C0000895CF93DF93CDB7DEB723970FB6F89463
:1038D000DEBF0FBECDBF9A8389836B8389818093BE
:1038E0007E0689819A812FE08A3F920728F46B81B6
:1038F00089819A810E947B0023960FB6F894DEBFDF
:103900000FBECDBFDF91CF910895CF93DF93CDB799
:10391000DEB723970FB6F894DEBF0FBECDBF898305
:1039200089818B3029F41092160710923C06DBC077
:1039300089818C3009F080C084E1809342068091B7
:10394000F5068823F1F080911607823091F480917A
:103950003C06813071F480913C069927FC01EE5FB2
:10396000F84F8EE8808380913C068F5F80933C0601
:10397000BDC080913C06882309F45BC00E947F1D76
:1039800058C08091C4068823B1F480917F068C30A2
:1039900071F4809157078F5F80935707853009F046
:1039A00048C08FEF8093C4061092570742C081E051
:1039B000809357073EC080913C069927FC01EE5F3B
:1039C000F84F10820E94792985EC96E00E94374FCB
:1039D000AC0165EC76E082E097E00E94404F0097F2
:1039E00071F48DE994E00E94242981E08093F5062A
:1039F00084ED96E09B838A831092420608C08DEA8C
:103A000094E00E94242987EB96E09B838A838A8135
:103A10009B8126E0843D920739F48091C306882378
:103A200019F00E943A2305C060E08A819B810E94C0
:103A30003A2710923C0657C080913C068A3008F025
:103A400052C089818A3009F419828091F506882351
:103A500029F080911607813009F003C08981805DCB
:103A6000898380913C069927FC01EE5FF84F89819C
:103A7000808380913C068F5F80933C068091C406D2
:103A8000882389F58981813369F481E08093EA068E
:103A900084E1809342068091C306809382060E944F
:103AA0003A231FC089818233E1F48091EA0688239A
:103AB00081F080918206982F90958091C30689238A
:103AC0008093C30610920F0710920E0781E0809337
:103AD000E7061092370682E08093F40681E0809337
:103AE000420610923C06898180937F0623960FB68A
:103AF000F894DEBF0FBECDBFDF91CF910895CF9375
:103B0000DF93CDB7DEB763970FB6F894DEBF0FBE75
:103B1000CDBF809102078A83809103078B838091B8
:103B200004078C83809105078D83809116078E830F
:103B30008091E6068F8380913C0688878E8188235A
:103B400009F042C18A81882309F038C18885823012
:103B500009F41C828B81882309F0AAC088858230F1
:103B600009F4E1C08C81882319F40E947929DBC013
:103B70008C81813021F481E08093F706D4C08C8160
:103B8000823019F41092F706CEC08C81833049F44C
:103B9000109201070E9479298CEB94E00E9424295D
:103BA000C2C08C81853009F07DC08885863008F4DC
:103BB00073C01C861B86909105078AE0989FC00100
:103BC000112420910607820F8A831A86198619828A
:103BD0008981282F33278885992705972817390742
:103BE0000CF03EC081E090E09A8789871B829B8120
:103BF0008981981798F429853A85C901880F991FFA
:103C0000880F991F880F991F820F931F820F931F90
:103C10009A8789878B818F5F8B83E9CF8885282F4F
:103C2000332789819927281B390BC901FC01EF5FD4
:103C3000F84F8081282F332789859A85289FA001F6
:103C4000299F500D389F500D11249A018B859C851A
:103C5000820F931F9C878B8789818F5F8983B8CF61
:103C60008A81893098F460E080EA9FE00E943A27D8
:103C70008A81282F3327C901820F931FFC01E85F37
:103C8000FB4F8B859C85918380834DC060E080EAEB
:103C90009FE00E943A2747C060E084EA96E00E94D5
:103CA0003A2741C060E084EA96E00E943A273BC090
:103CB0008B81813039F48091C306809382060E9403
:103CC0003A2331C08B81823081F480918206982F13
:103CD00090958091C30689238093C30682E08093E8
:103CE000F40681E0809342061EC08B81833021F46C
:103CF00081E08E831F8217C08B81843061F48C81B8
:103D0000813019F483E08E830EC060E084EA96E08F
:103D10000E943A2708C08B81853029F460E084EA4C
:103D200096E00E943A278B81863009F477C18B8117
:103D3000873031F460E084EA96E00E943A276EC151
:103D40008B81883029F588859927FC01EE5FF84F33
:103D5000108282E0898399818885981788F4898107
:103D60009927DC01AE5FB84F89819927FC01EE5F8E
:103D7000F84F8081805D8C9389818F5F8983EBCF41
:103D800084E097E00E949E4E60E00E943A2746C180
:103D90008B81893009F042C18C81882309F43EC1AE
:103DA0008C81813029F482E08E838D818F8336C1AE
:103DB00060E084EA96E00E943A2730C160E084EA3D
:103DC00096E00E943A272AC18E81813009F074C0A2
:103DD0008F818823C1F485EC96E00E94374FAC01B7
:103DE00065EC76E082E097E00E94404F009741F05A
:103DF0001F821E8260E087EB96E00E943A270EC188
:103E000081E08F830BC18F818130A9F48885992748
:103E1000AC0162E077E082E296E00E94044F888580
:103E200080937E0688859927FC01EE5DF94F10820C
:103E300082E08F83F3C08F81823009F0EFC08885E4
:103E40009927AC0162E276E082E097E00E94404F61
:103E5000009751F590917E068885981729F58DE495
:103E60008F8388859927FC01EE5FF84F1082888543
:103E70009927FC01EB53F94F10824AE050E062ECC5
:103E800070E082E097E00E94453988859927AC016F
:103E900062E077E085EC96E00E944E4F60E084EDB2
:103EA00096E00E943A2706C01F8260E087EB96E00A
:103EB0000E943A271E82B2C08E818230B1F51982EB
:103EC000998188859817E8F48F81282F3327C901B5
:103ED000820F931FFC01E354FC4F8981282F332765
:103EE00080819181D901A80FB91F89819927FC018F
:103EF000EE5FF84F8081805D8C9389818F5F89832D
:103F0000DFCF8F81282F3327C901820F931FFC0138
:103F1000E354FC4F8885282F332780819181F90154
:103F2000E80FF91F10821E8279C08E81833009F05C
:103F300075C01E828885823008F470C0CE010D964F
:103F40000E94EC2B1D868A81992782959295907FFD
:103F50009827807F98272B81820F8E8788858430D1
:103F6000D8F18C81992782959295907F9827807FB0
:103F700098272D81820F8F878885863068F1809100
:103F80000607992782959295907F9827807F98279A
:103F900020910707820F898B88858830E8F080910F
:103FA0000807992782959295907F9827807F982778
:103FB00020910907820F8A8B88858A3068F080916A
:103FC0000A07992782959295907F9827807F982756
:103FD00020910B07820F8B8B8F85843280F48E8526
:103FE0008A3568F48D858A3550F48989823338F4AE
:103FF0008A89833120F48B89863008F006C060E01E
:1040000080EA9FE00E943A270FC0CE010D960E94E1
:104010002B2D60E080EA9FE00E943A278E818093FA
:1040200016078F818093E60663960FB6F894DEBF7D
:104030000FBECDBFDF91CF910895CF93DF93CDB762
:10404000DEB722970FB6F894DEBF0FBECDBF9A83BE
:10405000898389819A81909374078093730722964C
:104060000FB6F894DEBF0FBECDBFDF91CF9108959C
:10407000CF93DF93CDB7DEB721970FB6F894DEBFAD
:104080000FBECDBF898381E08093D8061092F406DD
:1040900089818093830680918306882351F060E0B4
:1040A00070E080E00E941D3B60E070E081E00E94D3
:1040B0001D3B10927D06109249001092480082E04C
:1040C00080934E0021960FB6F894DEBF0FBECDBF91
:1040D000DF91CF910895CF93DF93CDB7DEB71092E4
:1040E000FF060E9457271092D80610924E00109299
:1040F000370683E08093F4061092420610925A0726
:104100001092130740E450E060E070E087E197E030
:104110000E94114F8091FD06843049F484E00E9492
:1041200078090E9491298FEF8093F70610C0809143
:10413000FD06833021F483E00E94780908C0809155
:10414000FD06893121F48091C2060E945908DF9151
:10415000CF910895CF93DF93CDB7DEB70E949B290F
:104160008091F406873078F48091F406282F332765
:10417000C901820F931FFC01EB50FC4F808191819C
:104180000E9424290BC08091F40699274AE050E050
:1041900062E276E00E946A4F0E942429DF91CF916B
:1041A00008950F931F93CF93DF93CDB7DEB7249776
:1041B0000FB6F894DEBF0FBECDBF89831C828091FD
:1041C000F006843099F48C81282F332785E190E024
:1041D000289FA001299F500D389F500D1124CA011E
:1041E000FC01E754F84F80818093DF078091F0064F
:1041F000893069F49091E0078981981709F4EDC03E
:1042000089818093E00789E00E947809E6C0809167
:10421000F006883069F49091E0078981981709F4D5
:10422000DCC089818093E00788E00E947809D5C0CE
:104230009091C3068981981709F4CFC01A828A81A8
:10424000883008F0ACC08A81282F332781E090E0C5
:10425000022E02C0880F991F0A94E2F78B8399817E
:104260008B818923882309F496C08091DF079B8185
:1042700089238823E9F08A81482F55278C81282FAC
:10428000332785E190E0289FB001299F700D389F6A
:10429000700D11249B01CA01840F951F820F931F7B
:1042A000FC01E654F84F80819181009709F406C023
:1042B0008B81982F90958981892389838091DF074D
:1042C0009B818923882309F466C08A81482F55275A
:1042D0008C81282F332785E190E0289FF001299FCA
:1042E000F00D389FF00D11249F01CA01840F951F16
:1042F000820F931F8C010654184F9C8185E1989F73
:10430000A00111248A81282F3327C901820F931F0E
:10431000840F951F8D5F9E4F0E948239F801918313
:1043200080838A81482F55278C81282F332785E168
:1043300090E0289FB001299F700D389F700D1124C7
:104340009B01CA01840F951F820F931FFC01E65445
:10435000F84F808191817FEF8F3F9707E1F48A8149
:10436000482F55278C81282F332785E190E0289FFF
:10437000F001299FF00D389FF00D11249F01CA0113
:10438000840F951F820F931FFC01E654F84F8EE1B6
:1043900090E0918380838A818F5F8A8350CF898167
:1043A000882309F41AC080915A07882339F0809134
:1043B000F406843019F40E943A230FC010920F07BC
:1043C00010920E0780915D07816080935D07909148
:1043D000C3068981892B8093C30624960FB6F8946F
:1043E000DEBF0FBECDBFDF91CF911F910F9108951A
:1043F000CF93DF93CDB7DEB721970FB6F894DEBF2A
:104400000FBECDBF89838981282F3327C901820F31
:10441000931FFC01E15EFA4F40E150E06081718141
:104420008091BD039091BE030E94044F80915D076F
:10443000816080935D0782E08093C30621960FB66A
:10444000F894DEBF0FBECDBFDF91CF910895CF931B
:10445000DF93CDB7DEB722970FB6F894DEBF0FBE5D
:10446000CDBF898389818131A1F48091C206282F33
:104470003327C901820F931FFC01E354FC4F608175
:10448000718185E896E00E94304F89E18093FD06B6
:1044900070C08981823109F049C00E9479290E9447
:1044A000980B0E94872980E40E9447298091C206C8
:1044B000282F3327C901820F931FFC01E354FC4FBF
:1044C00080819181FC01319680818E3209F451C046
:1044D00089E18093FD068091D1068823D9F08091EF
:1044E000C2060E949B198A838A81843051F481E03C
:1044F0008093C10644E06091F40680E00E948F182A
:1045000006C00E94AA2088EE93E00E94BA380E945A
:104510006B202FC08091C2060E941E1B8091420614
:10452000882309F0FBCF0E946B2023C0898183314F
:1045300041F48091C2068823E1F08FEF0E94EE06DD
:1045400018C08981873041F48091C206883088F490
:1045500081E00E94EE060DC089818E3051F4809179
:10456000C2060E94132460913406809135060E9491
:10457000790822960FB6F894DEBF0FBECDBFDF914B
:10458000CF910895CF93DF93CDB7DEB723970FB6C2
:10459000F894DEBF0FBECDBF9A8389831B828B81C7
:1045A0008232B8F58B81282F3327C901820F931FE0
:1045B000FC01E95EF84F80819181009731F58B8194
:1045C000282F3327C901820F931FFC01E95EF84FA2
:1045D00088E394E0918380838B81282F3327C9015E
:1045E000820F931FFC01E75EF84F89819A819183C6
:1045F00080838B81282F3327C901820F931FFC01F1
:10460000E55EF84F1182108204C08B818F5F8B832F
:10461000C6CF23960FB6F894DEBF0FBECDBFDF9195
:10462000CF910895CF93DF93CDB7DEB721970FB623
:10463000F894DEBF0FBECDBF89838091170790919C
:104640001807009771F081E08093130769818091CA
:104650001707909118070E94611C1092180710927A
:10466000170721960FB6F894DEBF0FBECDBFDF91BE
:10467000CF910895CF93DF93CDB7DEB722970FB6D2
:10468000F894DEBF0FBECDBF8091C306882361F4CE
:104690001A828A81833088F58AEA95E00E94C222D4
:1046A0008A818F5F8A83F5CF19828981833028F5CB
:1046B0001A828A818830E8F48091C306282F332734
:1046C0008A81992702C0359527958A95E2F7C90115
:1046D00081709070009749F09A8182E3989FC001A1
:1046E000112488519C4F0E94C2228A818F5F8A8345
:1046F000E0CF89818F5F8983D8CF80E00E94122329
:1047000022960FB6F894DEBF0FBECDBFDF91CF91DA
:104710000895CF93DF93CDB7DEB725970FB6F89402
:10472000DEBF0FBECDBF44E050E060E370E085EC3B
:1047300096E00E94114F1092C9064AE050E062EDE7
:1047400070E085EC96E00E944539198289818823C2
:1047500061F5998185E1989FC00111248D5F9E4F7D
:104760009D838C838C819D819B838A838C819D8199
:104770009C01205F3F4F8A819B818217930788F4B9
:104780006EE18A819B810E94C9398A819B81019651
:1047900060E00E94C9398A819B8102969B838A834B
:1047A000E5CF89818F5F8983D1CF62E081E190E09D
:1047B0000E94C9390E949E2B60E084E190E00E9433
:1047C000C9391092F10683E090E00E94883860E0D9
:1047D00083EE90E00E94C9391092D1066AE087E129
:1047E00090E00E94C9398AE08093BF068AE08093F6
:1047F0008D0760E084EE90E00E94C9391092C006F7
:104800008FE40E94472983E20E94E7281092DF0785
:104810000E94DC3225960FB6F894DEBF0FBECDBFE6
:10482000DF91CF910895CF93DF93CDB7DEB7239774
:104830000FB6F894DEBF0FBECDBF89838981282FC4
:104840003327C901820F931FFC01E354FC4F0190F1
:10485000F081E02DFB83EA8389818F5C80838A81EC
:104860009B8101964FE050E060E070E00E94114FA4
:104870008A819B81019649E050E06EE270E00E94DF
:10488000114F23960FB6F894DEBF0FBECDBFDF9158
:10489000CF9108950F931F93CF93DF93CDB7DEB7DA
:1048A00026970FB6F894DEBF0FBECDBF8FE08C8386
:1048B0001D821E821B828B81082F11278091540537
:1048C000909155050E94374F40960817190708F038
:1048D00059C08C810E9447298D818A838A81482F03
:1048E00055278D81282F33278C819927281B390B39
:1048F0008E819927281B390BC90140964817590703
:104900008CF48A81282F3327809154059091550586
:10491000F901E80FF91F80810E94E7288A818F5FE3
:104920008A83DCCF8AEF90E00E94BA388C8188239A
:1049300021F08C8181508C8303C08D818F5F8D83AA
:104940008A81082F112780915405909155050E9466
:10495000374F0817190718F08E818F5F8E830E94DA
:10496000412A0E941D2B89838981882339F00E9466
:1049700079298981805D0E94E72804C08B818F5F3F
:104980008B8399CF26960FB6F894DEBF0FBECDBFAE
:10499000DF91CF911F910F910895CF93DF93CDB702
:1049A000DEB70E9491291092E90681E08093FE060D
:1049B000DF91CF910895CF93DF93CDB7DEB71092FB
:1049C000FE060E94301C82EE90E00E94AA398430DC
:1049D00029F064E082EE90E00E94C939F89480EDFD
:1049E00097E00E94BA3878948091BF068093700750
:1049F000DF91CF910895CF93DF93CDB7DEB780914C
:104A00002300877F8093230088E290E00E94BA38D9
:104A10008091230088608093230084E190E00E94CD
:104A2000BA38DF91CF910895CF93DF93CDB7DEB73A
:104A300023970FB6F894DEBF0FBECDBF898389815F
:104A4000882319F48AE08A8302C089818A831B82C1
:104A50009B818A81981730F40E94FB248B818F5FA1
:104A60008B83F6CF23960FB6F894DEBF0FBECDBF73
:104A7000DF91CF910895CF93DF93CDB7DEB7229723
:104A80000FB6F894DEBF0FBECDBF9A83898340E492
:104A900050E060E070E087E197E00E94114F89816B
:104AA0009A810E94C22280E00E94122322960FB6B1
:104AB000F894DEBF0FBECDBFDF91CF910895CF93A5
:104AC000DF93CDB7DEB724970FB6F894DEBF0FBEE5
:104AD000CDBF83E00E94F0479093AB068093AA0677
:104AE0008091AA069091AB06AA2797FDA095BA2FB0
:104AF000BC01CD010E94134C69837A838B839C8314
:104B00008091AA069091AB06992384F420E030E0CE
:104B100040E857E469817A818B819C810E94AC498D
:104B2000DC01CB0189839A83AB83BC8329E23CE51A
:104B30004FE85FE369817A818B819C810E942D4BD4
:104B4000DC01CB018093770690937806A0937906D9
:104B5000B0937A0626E636E646E85FE3609177068C
:104B6000709178068091790690917A060E94124A97
:104B7000DC01CB018093F9069093FA06A093FB0623
:104B8000B093FC0623E333E343E75FE360917706EA
:104B9000709178068091790690917A060E94124A67
:104BA000DC01CB018093D2069093D306A093D40668
:104BB000B093D5066091F9067091FA068091FB06D4
:104BC0009091FC060E945E48DC01CB019093AD06FB
:104BD0008093AC066091D2067091D3068091D40682
:104BE0009091D5060E945E48DC01CB019093ED06C2
:104BF0008093EC0624960FB6F894DEBF0FBECDBFAF
:104C0000DF91CF910895CF93DF93CDB7DEB79FE1CA
:104C1000809135008923809335008091F206992791
:104C200081709070009729F08091350080628093A8
:104C300035008091F206992782709070009729F0D4
:104C4000809135008064809335008091F206992729
:104C500084709070009729F080913500806880936F
:104C60003500DF91CF910895CF93DF93CDB7DEB7B5
:104C700022970FB6F894DEBF0FBECDBF0E945F250E
:104C80008091DF07282F33278091F206992702C0F1
:104C9000359527958A95E2F7C90181709070009744
:104CA00009F44AC082E00E94F0479A838983809188
:104CB000F206282F3327C901820F931FFC01E25A05
:104CC000F84F89819A819183808329813A818091EB
:104CD000EC069091ED062817390750F029813A81AA
:104CE0008091AC069091AD068217930708F011C031
:104CF0008091F206282F332781E090E002C0880FD0
:104D0000991F2A95E2F720916E07822B80936E07F8
:104D100013C08091F206282F332781E090E0022E05
:104D200002C0880F991F0A94E2F7982F90958091FE
:104D30006E07892380936E078091F2068F5F8093C0
:104D4000F206883041F41092F2061092DD0780914D
:104D50006E070E94D1200E94032622960FB6F89477
:104D6000DEBF0FBECDBFDF91CF910895CF93DF930C
:104D7000CDB7DEB71092F2060E94032610926E079E
:104D8000DF91CF910895CF93DF93CDB7DEB723970F
:104D90000FB6F894DEBF0FBECDBF89838981813104
:104DA00048F08981843130F48981805199279B832F
:104DB0008A8334C08981853048F08981883030F415
:104DC0008981815099279B838A8328C08981893072
:104DD00048F089818C3030F48981825099279B83F7
:104DE0008A831CC089818D3029F48BE090E09B83FD
:104DF0008A8314C089818F3029F48CE090E09B83F2
:104E00008A830CC089818E3029F48AE090E09B83EC
:104E10008A8304C08BE090E09B838A838A819B8194
:104E200023960FB6F894DEBF0FBECDBFDF91CF91B2
:104E30000895CF93DF93CDB7DEB71092F7060E94A7
:104E40009B290E94CD248091F7079091F8079093B9
:104E5000D7068093D6068091D6069091D706009704
:104E600031F484E090E09093D7068093D606DF91EA
:104E7000CF910895CF93DF93CDB7DEB723970FB6C9
:104E8000F894DEBF0FBECDBF9A8389836B8389817F
:104E90009A810E94C2228B810E94122323960FB610
:104EA000F894DEBF0FBECDBFDF91CF910895CF93B1
:104EB000DF93CDB7DEB7809159008F7B8093590087
:104EC00080912300877F8093230080E991E00E94F6
:104ED000BA388091580080748093580080915900AE
:104EE000806480935900DF91CF910895CF93DF9331
:104EF000CDB7DEB7109271008CE080937000DF9127
:104F0000CF910895CF93DF93CDB7DEB724970FB637
:104F1000F894DEBF0FBECDBF898384EA809374000E
:104F20008091740088230CF0FBCF98EF8091710082
:104F300089238A838A81883041F08A81803129F0EF
:104F400081E090E09C838B831DC0898180937300F6
:104F500084E8809374008091740088230CF0FBCF68
:104F600098EF8091710089238A838A81883141F08A
:104F70008A81803429F081E090E09C838B8302C099
:104F80001C821B828B819C8124960FB6F894DEBF15
:104F90000FBECDBFDF91CF910895CF93DF93CDB7F3
:104FA000DEB722970FB6F894DEBF0FBECDBF898360
:104FB00084EA809374008091740088230CF0FBCF06
:104FC00098EF8091710089238A838A81883021F04B
:104FD0008A81803109F0ECCF89818093730084E865
:104FE000809374008091740088230CF0FBCF98EFBD
:104FF0008091710089238A838A81803221F08A819D
:10500000883509F00BC084E98093740080917400A6
:10501000992780719070009759F2F8CF22960FB6B9
:10502000F894DEBF0FBECDBFDF91CF910895CF932F
:10503000DF93CDB7DEB721970FB6F894DEBF0FBE72
:10504000CDBF898389810E948227992721960FB637
:10505000F894DEBF0FBECDBFDF91CF910895CF93FF
:10506000DF93CDB7DEB784E980937400DF91CF91F1
:105070000895CF93DF93CDB7DEB724970FB6F8949A
:10508000DEBF0FBECDBF898389818093730084E822
:10509000809374008091740088230CF0FBCF98EF0C
:1050A0008091710089238A838A81883229F081E086
:1050B00090E09C838B8302C01C821B828B819C812D
:1050C00024960FB6F894DEBF0FBECDBFDF91CF910F
:1050D0000895CF93DF93CDB7DEB784EC809374004F
:1050E0008091740088230CF0FBCF80917300992786
:1050F000DF91CF910895CF93DF93CDB7DEB784E8EA
:10510000809374008091740088230CF0FBCF809111
:1051100073009927DF91CF910895CF93DF93CDB797
:10512000DEB787E0809353001092520080915700C1
:10513000816080935700DF91CF910895CF93DF93E3
:10514000CDB7DEB785E080938A0087EF92EC90932D
:1051500089008093880080917D00846080937D0029
:10516000DF91CF910895CF93DF93CDB7DEB781E381
:1051700080934F0010924D0010924C008091560089
:1051800084608093560082E080934E001092490024
:105190001092480080915700846080935700DF91FF
:1051A000CF910895CF93DF93CDB7DEB7809165009F
:1051B00082608093650088EE93E00E94ED388091D4
:1051C00065008D7F80936500DF91CF910895CF9327
:1051D000DF93CDB7DEB721970FB6F894DEBF0FBED1
:1051E000CDBF89838091650084608093650089814B
:1051F00080933B000E94D22821960FB6F894DEBF20
:105200000FBECDBFDF91CF910895CF93DF93CDB780
:10521000DEB721970FB6F894DEBF0FBECDBF8983EE
:105220009BEF80916500892380936500898180933D
:105230003B000E94D22821960FB6F894DEBF0FBE25
:10524000CDBFDF91CF910895CF93DF93CDB7DEB778
:1052500022970FB6F894DEBF0FBECDBF9A83898325
:10526000E981FA818081882349F0E981FA8180818E
:105270003196FA83E9830E94E728F2CF22960FB68F
:10528000F894DEBF0FBECDBFDF91CF910895CF93CD
:10529000DF93CDB7DEB721970FB6F894DEBF0FBE10
:1052A000CDBF8983898180680E9405298981809387
:1052B000430621960FB6F894DEBF0FBECDBFDF9137
:1052C000CF910895CF93DF93CDB7DEB7809143069A
:1052D0009927DF91CF910895CF93DF93CDB7DEB7B4
:1052E0008CE30E9405298CE00E940529DF91CF9173
:1052F0000895CF93DF93CDB7DEB781E00E940529F3
:1053000084E090E00E94BA38DF91CF910895CF9366
:10531000DF93CDB7DEB78EE00E940529DF91CF91F4
:105320000895CF93DF93CDB7DEB78CE00E940529B7
:10533000DF91CF910895CF93DF93CDB7DEB721975B
:105340000FB6F894DEBF0FBECDBF80E40E944729A0
:1053500019828981803138F480E20E94E7288981AE
:105360008F5F8983F6CF80E40E94472921960FB68C
:10537000F894DEBF0FBECDBFDF91CF910895CF93DC
:10538000DF93CDB7DEB722970FB6F894DEBF0FBE1E
:10539000CDBF8983898180680E94052910923A00D7
:1053A00010923B008091650084608093650080913D
:1053B000650081608093650088EE93E00E94ED387F
:1053C0008091650082608093650088EE93E00E9482
:1053D000ED38809139008A83809165008D7F8093BC
:1053E0006500809165008E7F809365008FEF8093CC
:1053F0003A008FEF80933B008A81992722960FB65F
:10540000F894DEBF0FBECDBFDF91CF910895CF934B
:10541000DF93CDB7DEB723970FB6F894DEBF0FBE8C
:10542000CDBF9A83898380E48B838B81803578F428
:105430008B810E94BF29282F89819A81FC012083BA
:1054400001969A8389838B818F5F8B83EECF23961E
:105450000FB6F894DEBF0FBECDBFDF91CF91089598
:10546000CF93DF93CDB7DEB78FEF9FEF90937807A1
:10547000809377071092760710927507DF91CF918E
:105480000895CF93DF93CDB7DEB725970FB6F89485
:10549000DEBF0FBECDBF1D8219828981843008F026
:1054A0006DC08981282F332781E090E0022E02C051
:1054B000880F991F0A94E2F780933B001B828B812F
:1054C000843620F48B818F5F8B83F9CF80913300FA
:1054D0008B8380913600992781709070009721F01E
:1054E0008B8180618B8303C08B818F7E8B831A823B
:1054F0008A81853008F03EC08A819927880F991FDC
:10550000880F991F2981820F8C838B81282F332745
:105510008A81992702C0359527958A95E2F781E01F
:1055200090E08227932781709070009769F08C81BA
:105530009927FC01EC5BF94F8081882329F08C814D
:105540000E94C92A81E08D838C819927FC01EC5B44
:10555000F94F8A81282F332781E090E002C0880F1D
:10556000991F2A95E2F72B81822380838A818F5F9E
:105570008A83BECF89818F5F89838FCF8D81992761
:1055800025960FB6F894DEBF0FBECDBFDF91CF9149
:105590000895CF93DF93CDB7DEB723970FB6F89476
:1055A000DEBF0FBECDBF8983809175078A8380914E
:1055B00077078B838A818F3F91F48B818F5F8B83F9
:1055C00080917707909178078F30910521F41B82A5
:1055D0008EE08A8304C08091770781508A838A8114
:1055E0009927FC01E85AF94F89818F5F80838A816E
:1055F0008F5F8A838B818F3F09F41B829A818B8115
:10560000981721F08A818F3009F002C08FEF8A83CA
:105610008A81992790937607809375078B819927C4
:10562000909378078093770723960FB6F894DEBFA0
:105630000FBECDBFDF91CF910895CF93DF93CDB74C
:10564000DEB723970FB6F894DEBF0FBECDBF1A8228
:105650001982809177078B838B818F3F31F18B810A
:105660009927FC01E85AF94F808199279A83898309
:105670008B818F5F8B838B818F3009F41B828B81B1
:10568000282F3327809175079091760728173907BF
:1056900031F48FEF8B8310927607109275078B8110
:1056A0009927909378078093770789819927239684
:1056B0000FB6F894DEBF0FBECDBFDF91CF91089536
:1056C000CF93DF93CDB7DEB721970FB6F894DEBF47
:1056D0000FBECDBF898380912B0099278072907077
:1056E000009709F4F8CF898180932C0021960FB69A
:1056F000F894DEBF0FBECDBFDF91CF910895CF9359
:10570000DF93CDB7DEB721970FB6F894DEBF0FBE9B
:10571000CDBF898380919B009927807290700097FC
:1057200009F4F8CF898180939C0021960FB6F894F4
:10573000DEBF0FBECDBFDF91CF910895CF93DF9332
:10574000CDB7DEB721970FB6F894DEBF0FBECDBF41
:1057500010922A0081E190E00E94AA398983898110
:10576000883010F082E0898382E080932B00898169
:10577000282F3327C901820F931FFC01EA5AFA4FE1
:1057800080818093290088E980932A0082E08093B9
:105790009B0080E18093990088E980939A0021968C
:1057A0000FB6F894DEBF0FBECDBFDF91CF91089545
:1057B000CF93DF93CDB7DEB70E94762780ED0E94AE
:1057C000822787E00E94392880E90E9439280E94B8
:1057D0002F28DF91CF9108950F931F93CF93DF93DD
:1057E000CDB7DEB722970FB6F894DEBF0FBECDBFA0
:1057F0009A83898380ED0E94CD2780E00E9439281A
:1058000081ED0E94CD2709811A810E946928F80143
:10581000808309811A810E946928F80181830981A6
:105820001A810E946928F801828309811A810E94E5
:105830006928F801838309811A810E946928F80187
:10584000848309811A810E946928F801858309816E
:105850001A810E947B28F80186830E942F28A98143
:10586000BA81E981FA818081982F92959F708AE0B0
:10587000989F90011124E981FA8180818F70820FB5
:105880008C93A981BA81E981FA818181982F9295BF
:105890009F708AE0989F90011124E981FA818181AB
:1058A0008F70820FFD018183A981BA81E981FA811C
:1058B0008281982F92959F708AE0989F9001112481
:1058C000E981FA8182818F70820FFD018283A98133
:1058D000BA81E981FA818481982F92959F708AE03C
:1058E000989F90011124E981FA8184818F70820F41
:1058F000FD018483A981BA81E981FA818581982F8C
:1059000092959F708AE0989F90011124E981FA8115
:1059100085818F70820FFD01858322960FB6F894E2
:10592000DEBF0FBECDBFDF91CF911F910F910895C4
:10593000CF93DF93CDB7DEB72C970FB6F894DEBFC9
:105940000FBECDBF188619861A861B86CE0101961A
:105950000E94EC2B80E40E94472983E08C878C8591
:10596000823098F18C85282F3327CE01FC01E20F7D
:10597000F31F80818A3018F480E30E94E728BE017B
:10598000685F7F4F8C85282F3327CE01FC01E20F03
:10599000F31F808199274AE050E00E946A4F0E94DD
:1059A00024298C85823069F08981992781709070D3
:1059B000009721F08AE30E94E72803C080E20E945A
:1059C000E7288C8581508C87CACF80E20E94E72827
:1059D0008D818A3018F480E30E94E7289E01285FB9
:1059E0003F4F8D8199274AE050E0B9010E946A4FEC
:1059F0000E9424298EE20E94E7288E818A3018F4C2
:105A000080E30E94E7289E01285F3F4F8E819927FF
:105A10004AE050E0B9010E946A4F0E9424298EE2B8
:105A20000E94E72884E695E00E9424299E01285FD1
:105A30003F4F8F8199274AE050E0B9010E946A4F99
:105A40000E9424292C960FB6F894DEBF0FBECDBF5E
:105A5000DF91CF910895CF93DF93CDB7DEB7229733
:105A60000FB6F894DEBF0FBECDBF9A83898380ED59
:105A70000E94CD2780E00E943928E981FA81808147
:105A80000E943928E981FA8181810E943928E981BF
:105A9000FA8182810E943928E981FA8183810E94FA
:105AA0003928E981FA8184810E943928E981FA81C3
:105AB00085810E943928E981FA8186810E943928EE
:105AC0000E942F2822960FB6F894DEBF0FBECDBFDE
:105AD000DF91CF910895CF93DF93CDB7DEB780915B
